:020000040800F2
:1000000020040020D5000008610B0008B508000896
:1000100000000000000000000000000000000000E0
:10002000000000000000000000000000DF0B0008DE
:100030000000000000000000DD0B0008E10B0008DC
:10004000000000000000000000000000E7000008C1
:10005000E7000008E7000008E7000008E7000008E4
:100060000000000000000000000000000000000090
:10007000E7000008E7000008E700000800000000B3
:1000800000000000E700000800000000E700000892
:10009000000000000000000000000000E700000871
:1000A00000000000E700000800000000E700000872
:1000B0000000000000000000000000000000000040
:1000C0000348854600F002F900480047ED0D00089E
:1000D000200400200448804704480047FEE7FEE76C
:1000E000FEE7FEE7FEE7FEE7E50B0008C1000008BB
:1000F00030B50B46014600202022012409E00D46C0
:10010000D5409D4205D31D469540491B2546954047
:1001100040191546521E002DF1DC30BD024670B567
:100120004A40D30FDB0740002DD04A002AD0010EF1
:10013000140E000212020919400A520A8418E5013D
:1001400004465443000A120A2E045043A4194219CB
:10015000200CC543AA18120C0125AD03521C5219DC
:1001600012047F39240400D0521C104301D44000F3
:10017000491EC2B20C06C0092018401C4008802A43
:1001800002D003E0002070BD40084000002900DAE2
:100190000020184370BD70B502464A40D50F40009C
:1001A0004A00ED0740085208002814D0002A12D057
:1001B000C40DD30D41020120C0055202490A520A62
:1001C000E41A091812187D34914201D3641C00E02E
:1001D0004900002C01DA002070BD0023914201D3B8
:1001E000891A0343400849000028F7D100290AD0A2
:1001F000914202D10121C90705E0914201D20121BA
:1002000001E00121C943E005C018401900F01CF8C5
:1002100070BD10B500229623114600F01DF810BDE8
:10022000410040020122400AD205090E80187F29B0
:1002300001DA00207047962903DC9622511AC84043
:100240007047963988407047002904DA401C4900FD
:1002500001D140084000704770B40024050C05D15E
:100260001024000402D1002921D01124050E01D14F
:1002700000020834050F01D10001241D850F01D1B2
:100280008000A41C002801DB4000641C002908D069
:1002900020252E1B0D46F540A14000D00121294309
:1002A000084301061B1B000ADB1D02D5002070BCA1
:1002B0007047DB05181880180029F8DA401C49003F
:1002C000F5D170BC4008400070470000064C012585
:1002D000064E05E0E36807CC2B430C3C98471034EE
:1002E000B442F7D3FFF7F0FEC00E0008E00E00089E
:1002F00010B50D4800F0E8FA002813D100BF0A48F5
:1003000080680A490840090740180749886000BF0B
:1003100000BF00BF04488068C00F0028F9D1012049
:1003200000F004FC10BD000000240140E8FFFF7F46
:1003300010B5012000F02AFB032240210520000710
:1003400000F0F0FA032280210520000700F0EAFA0D
:10035000012040072D4909690901090901432B4A78
:10036000116100BF00201146C96818229143014362
:10037000264AD16000BF00BF1146C96820229143C0
:100380000143224AD16000BF00BF1146C968012263
:100390009203914301431D4AD16000BF07201146DB
:1003A000496981430143516100BF00201146C9687A
:1003B0003722920191430143144AD16000BF00BF2C
:1003C0001146C968521491430143104AD16000BFDD
:1003D00090141146C9680246914301430B4AD1600B
:1003E00000BF00201146C968012212049143014355
:1003F000064AD16000BF00BF054909680322920583
:1004000091430143024A116000BF10BD0024014026
:100410000827014070B504460025224800F054FA30
:10042000002802D01F4800F047FA00BF6005400DC9
:100430001C49886200BF00BF084680681A4908400E
:10044000401C1849886000BF012000F06FFB00BF0E
:100450001448806814490840001D1249886000BF94
:1004600000BF00BF0F480068042108408008002832
:10047000F7D000BF04200B49086000BF00BF08464A
:10048000006C80B20546084600F016FA00BF054829
:10049000806A6105490D88430249886200BF284689
:1004A00070BD000000240140E8FFFF7F70B500240C
:1004B0000A26002508E01A48FFF7ACFF04190520BA
:1004C00000F034FB681CC5B20A2DF4DB0A2120467B
:1004D000FFF70EFE1349088008460088124988423B
:1004E00002DD08460F4908800E48008814300E4986
:1004F000884204DA0B480088081A143800E001200A
:100500000A49088007480088142803DD0548008848
:10051000143800E00120064908800248008870BDB8
:100520001000001006000020FF0F0000080000204F
:100530000A000020F0B585B0064635480088301A1C
:1005400005B2142D20DD29461439142251430846E2
:1005500030490988FFF7CCFD0446132C00D9132439
:1005600001212D4800F0DAF902212B4800F0C2F9F0
:10057000204600F0DBFA0121274800F0BBF91421E6
:10058000081B00F0D3FA40E01320C043854231DA63
:10059000684287B221480088FFF73BFE394614398C
:1005A0001422514302900846FFF733FE3F2109060B
:1005B0000090FFF7B3FD01900299FFF7ECFD039067
:1005C000FFF72EFE0446132C00D9132402211248F3
:1005D00000F0A4F90121104800F08CF9204600F049
:1005E000A5FA02210C4800F085F91421081B00F03F
:1005F0009DFA0AE00121084800F07CF90221064832
:1006000000F078F9142000F091FA05B0F0BD000078
:100610000600002008000020000400500A0000200E
:1006200010B500BF1E480068FF21013108431C4976
:10063000086000BF00BF00BF19480068012189029F
:100640000840800A0028F6D00020154989680F224A
:10065000120291430143124A916000BF00BF11464C
:100660008968C908C9000143916000BF00BF00BF8D
:100670000B488068382108400028F8D100BF08499D
:1006800089680722120391430143054A916000BF24
:10069000044800F097F9034800F0A8F910BD0000E5
:1006A0000010024000366E0110B5044600BF012064
:1006B00000F07AF900BF6200084B995AA200084B7B
:1006C0009858012200F03BF96200044B995AA200AD
:1006D000034B985800F024F910BD0000B40E000838
:1006E0001400002070B504460D4600BF002C02D156
:1006F000012000F059F900BF62001C4B995AA2007A
:100700001B4B9858002200F01AF96200174B995AB7
:10071000A200174B9858002200F01EF9012D24D199
:10072000A100144A5058144909680143124A116043
:1007300000BFA1000F4A50580F4980394968014352
:100740000D4A803A516000BF0C49095D48B20F2143
:1007500000F008FA0949095D48B2C206D20E01212B
:100760009140074A116000BF00BF70BDB60E00087F
:1007700018000020BC0E000880180240B80E0008C7
:1007800000E100E008B5012080033F49096801430A
:100790003D4A1160114609680140009100BF00BF49
:1007A000E1235B02002239480168394800F024F94E
:1007B00000203749C9680122120391430143344A9A
:1007C000D16000BF00BF1146096952149143014333
:1007D0002F4A116100BF00BF1146C96803225202AF
:1007E000914301432A4AD16000BF00BF11464969C5
:1007F0000322120291430143254A516100BF0C209C
:100800001146C9680C2291430143214AD16000BFBF
:1008100000BF1046C068511408431146C86000BFAD
:1008200000BF4020C043086000BF022000F0BCF8B9
:10083000022000F0B9F802221021164800F07FF8DB
:1008400003221021134800F094F8012210211148CE
:1008500000F082F8012210210E4800F04DF802222B
:1008600020210C4800F06BF803222021094800F0F9
:1008700080F801222021074800F06EF80122202193
:10088000044800F039F808BD401002400000002084
:10089000003801400004005008B50549414300916B
:1008A00000BF00BF00994A1E00920029F9D108BD7F
:1008B000B80B000000BFFEE78168024A1140891CA6
:1008C00081607047E8FFFF7F01468868C007C00F5E
:1008D000012250405040704708B50549096801435E
:1008E000034A1160114609680140009100BF08BD2C
:1008F000401002408162704730B5046A0B464B439A
:100900004B434B43DD00ED1A2346AB430C464C43AF
:100910004C434C4354432343036230BD81617047D1
:100920008161704730B503680C464C43650064191B
:10093000A3430C464C4354432343036030BD30B5BE
:1009400003680C464C4365006419A3430C464C43B2
:1009500054432343036030BD30B5C3680C464C4359
:1009600065006419A3430C464C4354432343C360BE
:1009700030BD30B583680C464C4365006419A34311
:100980000C464C4354432343836030BD08B50549AE
:10099000496B0143034A51631146496B0140009181
:1009A00000BF08BD0010024008B50549496B01436E
:1009B000034A51631146496B0140009100BF08BDD5
:1009C0000010024070B504467D25ED002946204602
:1009D000FFF78EFB401E0449486100208861052016
:1009E000086100BF70BD000000E000E00149086040
:1009F0007047000000000020FFB583B00C461D4684
:100A00000121C9020598884247D169001922624331
:100A10001046FFF76DFB06466421FFF769FB0701EF
:100A20006900192262431046FFF762FB064669001F
:100A3000192262431046FFF75BFB64210190FFF728
:100A400057FB64214843301AC00032300290FFF750
:100A50004FFBF821084040003F186900192262430B
:100A60001046FFF745FB064669001922624310460F
:100A7000FFF73EFB64210190FFF73AFB64214843F6
:100A8000301AC00032300290FFF732FB4007400FAF
:100A9000381881B20398816045E0A90019226243A9
:100AA0001046FFF725FB06466421FFF721FB0701EF
:100AB000A900192262431046FFF71AFB0646A90057
:100AC000192262431046FFF713FB64210190FFF7E0
:100AD0000FFB64214843301A000132300290FFF7C7
:100AE00007FBF02108403F18A90019226243104675
:100AF000FFF7FEFA0646A900192262431046FFF7E7
:100B0000F7FA64210190FFF7F3FA64214843301AA1
:100B1000000132300290FFF7EBFA0007000F38189F
:100B200081B20398816007B0F0BD000008B50146AE
:100B30000A4A1269009200BF0846421C002A00D0EF
:100B4000401C07E0054A126901231B041A40002AD1
:100B500000D0401E0028F5D108BD000000E000E0F4
:100B60007047000010B5002819DA1A4A03071B0F56
:100B7000083B9B089B00D2588307DC0EFF23A34051
:100B80009A438B071B0E8407E40EA3401A43114BB4
:100B90000407240F083CA408A4001A5118E00E4AC8
:100BA00003231B02D21883089B00D2588307DC0E54
:100BB000FF23A3409A438B071B0E8407E40EA34038
:100BC0001A43054B032424021B198408A4001A515C
:100BD00010BD00001CED00E000E100E07047704730
:100BE0007047000010B50E484068000C00040D4925
:100BF000098889B208430A494860084640680A499A
:100C00000840084940318988C905C9090843044991
:100C10004860C803054988606420FFF73DFE10BDA9
:100C2000001002400001FF1FFFFF00FE00ED00E08A
:100C30000FB410B503A9044B044A029800F018F849
:100C400010BC08BC04B01847C10D00081C000020EF
:100C500002E008C8121F08C1002AFAD17047704785
:100C6000002001E001C1121F002AFBD170470000E3
:100C7000FFB58DB00446002506E025280AD0109A5D
:100C80000F999047641C6D1C20780028F5D12846E8
:100C900011B0F0BD00270121484A009700E007434A
:100CA000641C23780846203B98401042F7D12078F6
:100CB0002E2817D1042007436078641C2A280CD101
:100CC0000E98641C02C800910E900BE000990A2255
:100CD000514330394018641C009020780146303967
:100CE0000929F3D920780028D1D0642808D06928B0
:100CF00006D075281ED0109A0F9990476D1C5BE0A6
:100D00000A200E99019001C90E91002802DA404292
:100D10002D2102E0390504D52B216A4611720121EB
:100D200003E0F90704D02021F7E70BAE0B910DE0AB
:100D30000021FAE70A200E99019001C90E91F7E708
:100D40000199FFF7D5F93031761E31700028F7D1BF
:100D500003A8801B20300190780701D5009801E09E
:100D6000012000900199884201DD401A00E0002036
:100D70000027009006E002A8109AC05D0F999047E6
:100D80006D1C7F1C0B988742F5DB04E0109A302025
:100D90000F9990476D1C0099481E00900029F5DCC2
:100DA00005E03078109A761C0F9990476D1C0199D8
:100DB000481E01900029F4DC641C65E70928010045
:100DC0000A46C1B2084B596000BF00BF00BF0649C8
:100DD00009684023194089090029F7D000BFD94389
:100DE000014B196000BF70470038014008B5012071
:100DF000FFF772FD012000072149C96B0143204A1A
:100E0000D1631146C96B0140009100BF00BFFFF7DD
:100E100007FC0020FFF748FC00210846FFF762FCB2
:100E2000FFF7B0FC01200005FFF756FDFFF780FA41
:100E3000FFF75EFA0220FFF7A9FD012211461148D3
:100E4000FFF770FD012202210E48FFF76BFDFFF74F
:100E50002DFB0D490880084601880CA0FFF7E8FE2D
:100E60000DE00E48FFF7D6FA0D49088008460188C4
:100E70000CA0FFF7DDFE0A480088FFF75BFBF0E7F8
:100E80000010024000040050060000204D6964205C
:100E9000706F696E743A2025750D0A0010000010FD
:100EA00004000020504137204144433A2025750D6D
:100EB0000A0000000200010005000000010000001F
:100EC000E00E00080000002020000000500C000888
:100ED000000F00082000002000040000600C000843
:100EE00000366E010000000000000000000000005D
:100EF0000000000000000050000000500000000052
:04000005080000C12E
:00000001FF
